:020000040800F2
:10000000E01600208101000851470008153A000859
:1000100000000000000000000000000000000000E0
:10002000000000000000000000000000C9490008B6
:10003000000000000000000099470008CB490008BC
:100040009301000893010008930100089301000840
:100050009301000893010008930100089301000830
:1000600000000000C5150008D5150008C1150008DE
:100070009301000893010008930100089301000810
:100080009301000893010008930100089301000800
:10009000000000009301000893010008930100088C
:1000A00093010008930100089301000893010008E0
:1000B000CD5000089301000800000000000000007F
:1000C00000F002F800F030F80CA030C8083824180E
:1000D0002D18A246671EAB4654465D46AC4201D180
:1000E00000F022F87E460F3E0FCCB6460126334282
:1000F00000D0FB1AA246AB4633431847EC6300001E
:100100000C6400000023002400250026103A01D3CF
:1001100078C1FBD8520700D330C100D50B607047BF
:100120001FB51FBD10B510BD01F0DAF81146FFF77D
:10013000F7FF05F083FD01F0F2F803B4FFF7F2FFDB
:1001400003BC01F02FF9000070B505460C461646B9
:1001500002E00FCC0FC5103E102EFAD2082E02D3AB
:1001600003CC03C5083E042E07D301CC01C5361FBE
:1001700003E021782970641C6D1C761EF9D270BDD5
:100180000748804707480047FEE7FEE7FEE7FEE72F
:10019000FEE7FEE704480549054A064B70470000A4
:1001A0004D4A0008C1000008E0100020E0160020C1
:1001B000E0120020E0120020F8B5042A2CD38307B7
:1001C00012D00B78491C0370401C521E83070BD0C1
:1001D0000B78491C0370401C521E830704D00B7817
:1001E000491C0370401C521E8B079B0F05D0C91A77
:1001F000DF002023DE1B08C90AE0FFF7A5FFF8BDDA
:100200001D4608C9FD401C46B4402C4310C0121FB7
:10021000042AF5D2F308C91A521EF0D40B78491CEF
:100220000370401C521EEAD40B78491C0370401C1A
:10023000012AE4D409780170F8BD01E004C0091F67
:100240000429FBD28B0701D50280801CC90700D08E
:100250000270704700290BD0C30702D00270401C07
:10026000491E022904D3830702D50280801C891EFF
:10027000E3E70022EEE70022DFE7002203098B42DA
:100280002CD3030A8B4211D300239C464EE0034635
:100290000B433CD4002243088B4231D303098B42E9
:1002A0001CD3030A8B4201D394463FE0C3098B421F
:1002B00001D3CB01C01A524183098B4201D38B0178
:1002C000C01A524143098B4201D34B01C01A52411B
:1002D00003098B4201D30B01C01A5241C3088B4260
:1002E00001D3CB00C01A524183088B4201D38B004B
:1002F000C01A524143088B4201D34B00C01A5241ED
:10030000411A00D201465241104670475DE0CA0FC3
:1003100000D04942031000D34042534000229C4683
:1003200003098B422DD3030A8B4212D3FC2289018D
:1003300012BA030A8B420CD3890192118B4208D363
:10034000890192118B4204D389013AD0921100E0C5
:100350008909C3098B4201D3CB01C01A52418309D9
:100360008B4201D38B01C01A524143098B4201D306
:100370004B01C01A524103098B4201D30B01C01A31
:100380005241C3088B4201D3CB00C01A52418308AB
:100390008B4201D38B00C01A5241D9D243088B4201
:1003A00001D34B00C01A5241411A00D201466346A4
:1003B00052415B10104601D34042002B00D5494208
:1003C000704763465B1000D3404201B50020C04631
:1003D000C04602BD70477047704700000246C80F14
:1003E000C00781434B0030B54B405B009B0D20D0D4
:1003F0001923DB06C91801231B05994220DB0324BE
:10040000A40704251346AB400BD3002B04D1EB0605
:1004100013409B00E34204D4012464070023121913
:100420005941FF231B0599420BD2C9000143500FCC
:1004300009E0CB0204D501430803024305D0054877
:1004400030BDFF21C905084330BD08460721090515
:10045000884330BD0000C07FF0B50C46871A9C4130
:100460000D46861A9D4103D2C01BA141D21963419A
:100470000D0D1F0DC94EEC1BAE435CD07F057F0DEB
:100480000026002F51D02D05AC46A943DD020123E3
:10049000ED0A1B051D4320231B1B24D41746E740F0
:1004A000381871412F46E740CC199D402818314635
:1004B00061410C0D27D161449A4013D50023401CA3
:1004C000594152000ED14008400001224B00520514
:1004D000D34207D305204007C14201D5B04900E00F
:1004E000B0493046F0BD6B00002A00D001229A18B6
:1004F0001F23203C1B1B01D5002302E0E5402818E8
:1005000071410C0DD7D0012424050919C407CD076A
:1005100040084908E40F28436144002CD5D000244A
:10052000401C61419A40D0D1CDE76A05520DD9D126
:10053000C90FC907D5E79C4D4E00002801D0012402
:1005400000E0002434195F00002A01D0012600E0F9
:100550000026BE19954FAC420CD8AE420AD8B44220
:1005600006D001256D05EC42BCD010461946F0BD01
:100570009942FCD000203946F0BDF0B51FB40C46BE
:100580000F46811A9F412546861A9D4106D20125B4
:10059000ED076F40401ABC4152187B41210D1E0DE2
:1005A0008D1BAC467D4D8D437ED075056D0D7CD089
:1005B0000D05AE46AC431B031B0B794D52429D41CA
:1005C000202366469B1B14D31746F7403818002695
:1005D0000090744160462F460741E41900989D4001
:1005E0002818664116D4714671189A4025D5012302
:1005F00020E093182A466A415200002B00D0521C7A
:100600001E23203E9B1B002B61DD3541EE17281871
:100610006641E8D5001876415B1C9A4000D3401C27
:100620004B05F3181524E34010D3002B52D071462C
:100630007118D30FC01802D3491C05B0F0BD0123B7
:10064000DB079A42F9D140084000F6E70122520543
:10065000B21801D1002853D00123CC0ADB02994300
:10066000891E002A08D1020C03D0020C00041039A4
:1006700002E00246002020390023550B05D112026A
:100680000823550B01D152010D23550C01D1120144
:100690001B1DD50C01D192009B1C150D01D15200E0
:1006A0005B1C2025EE1A01E02CE022E00546F54017
:1006B00015439840CA1AE10769181305C918002A9A
:1006C000BBDA032040070818C10FC9070FE07146C5
:1006D0006118B2E7F10740080843711071444A00FD
:1006E0000CD001235B059A42A7D2C90FC90700208D
:1006F000A3E74905490D26D1002001E00028F4D1E7
:1007000000219AE7284D6600002801D0012100E071
:10071000002171185F00002A01D0012600E00026A8
:10072000BE19224FA94210D8AE420ED8B14208D00D
:1007300001256D05E94206D01946A8024140104640
:100740007BE79C4201D0214677E70020394674E7D9
:1007500010B50C465C4005D50124E4076340FFF763
:100760000CFF10BDFFF778FE10BD30B40C465C40A6
:1007700004D50124E407634030BC6DE630BCFCE6E0
:1007800070B50124E40761400D465D4002D4FFF7D7
:1007900063FE70BD6340FFF7F0FE70BDFF07000011
:1007A0000000F0FF0000F07F0000E0FF0000F87F95
:1007B000F0B5F94D0C091E092C402E402F468BB088
:1007C000A7437DD0B543FCD0002E7AD0002CFCD0BE
:1007D0000D465D40ED0F2543AC1BFF25AD046419AC
:1007E0000894C502440DC9022143500DDC020443A4
:1007F0000120C00701430443D2020191200C110CD7
:1008000000958C46010423468B430A9161460904F6
:10081000E24D8A430991010A7D44491980390978DA
:1008200005464D4301266D18F605751B6943C90C35
:10083000640B891C4C436418B5012C1B250C2E0439
:10084000B4434C434D43210C691889090591009D1F
:10085000E90701D00121C90704912C4601996708D5
:10086000CD072F434C08059DE10B4D432D0C294628
:100870006646754302950D4645432E46029D7D1BF7
:10088000B44100950D465D4301942C0C2F040D4698
:100890005543AE462D0C3D43029503947546049C8A
:1008A0002D04641B049406D2029C039D641C002644
:1008B00075410395029401AC70CC009F7D1B01E053
:1008C0003EE162E1B4410904009507910194059964
:1008D000A4086143090C0C464443650BE7040C462D
:1008E00066467443A646640B3C43039502947446E3
:1008F000049DE4042C1B049406D2029C039D641CFA
:10090000002675410395029401AC70CC009F7D1BBD
:10091000B44101940C465C430095650FE7000C461A
:100920005443A646640F3C43039502947446049DC9
:10093000E4002C1B049406D2029C039D641C002638
:1009400075410395029401AC70CC009F7D1BB441AE
:10095000AE09AF06049DC900AD092F43049DA4064E
:10096000AD060495079D344369180791059DE10B79
:100970004D432D0C29466646754302950D46454369
:100980002E46029D7D1BB44100950D465D430194AA
:100990002C0C2F040D465543AE462D0C3D430295BD
:1009A00003947546049C2D04641B049406D2029C97
:1009B000039D641C002675410395029401AC70CC24
:1009C000009F7D1BB44101948C050694079C890A05
:1009D000611800950791019C0599A4086143090CD1
:1009E0000D464543680BEF040D46644665436C0BAA
:1009F0003C43049FED047D1BAC4602D20025641CE1
:100A00006841009E019D371B85410846584301956A
:100A10000C46460FC5005443600F28436546E4006A
:100A20002C1B02D20025401C6E41019D3F1AB5418E
:100A30002846BD09800628438446A009BF064E0209
:100A40000699A40676180743079D002068410A9975
:100A5000079019430020099B00906046FF1913433B
:100A60004041E20F64003A43A4460446D71A8C4141
:100A7000A04203D90120009020463A46C70F94189F
:100A800040416246D20F2243644664000494009CB5
:100A9000BE466400D71AA446044602978C417746A6
:100AA000002F01D1A04204D96046401C8446029A1E
:100AB0002046C40FA64694184041049A0546D20F1A
:100AC000224364466400D31A8D417146002901D146
:100AD000A84202D928461A46641C10430122002865
:100AE00000D0164361020020079B891904465C412F
:100AF0000223002C02DB491813466441089DCE0AEC
:100B00002D145D194B056705E10A2C050D1908998F
:100B10003E43C9076940002B08D0934006D300220A
:100B2000761C5141002B01D1760876001C4A002D1D
:100B300043DB154241D0AA433FD030460BB0F0BD55
:100B400006180D464D41174C7642AC411AD3951804
:100B50001C465C41134A6D42A24113D30122520547
:100B60004C00D4420AD15C00D4420BD04B4002D599
:100B700092021143E2E749004908DFE75940C90FF3
:100B8000C90718E000200849D8E7054801420DD1FF
:100B90000342F7D0F2E700000000FF07C85B000047
:100BA0000000F07F0000E0FF0000F87F114859408E
:100BB0000143C01241400020C0E70123089A9B0670
:100BC0009A4205DC032252078918C90FC907B5E705
:100BD000052252078918074A1143D2125140ADE746
:100BE00070B515461C4602460B4628462146FFF7BF
:100BF000DFFD70BDFFFFFF7FF0B58B4C0F09254671
:100C000089B0BD437BD01D092646AE43FAD00E46BF
:100C10005E402740F60F3E43254071D0240121421B
:100C2000FBD0FF24AD19A4042D1B039501252D0530
:100C3000DB02DB0AC9022B43C90A29431E01090151
:100C4000040F130F050121431701880B8203914301
:100C50002D098C46A90B1E438A039543B30B9A03B7
:100C600096433F09BA0B9403A74302962E467E4350
:100C70000497B6464E19D7190C460196544305976A
:100C80007E43371B7646BF1B3601B646BE0B361970
:100C900000967646BC043719009C01D3641C00946E
:100CA0006400002F01D001263443029E049F754347
:100CB00066467E430496760034196E00341900941B
:100CC000029C019E1C196643751BAE460694654640
:100CD0004519059C05956C43594375460891691A59
:100CE0000191049E01465143A41B0491611A009C8A
:100CF0000791E10605D061090122114302E072E08B
:100D00006EE06109089D00272C0A2D066918049DD4
:100D10007C412A0A2D066918019D6241AC0DAD0285
:100D20006D185441079A910D920255196141029A2A
:100D3000644658435443069B059A5A43121A131BA0
:100D40009A0E9B015B187A41010B0005C3185141B3
:100D5000220A200644195A419A4200D2491C012015
:100D60004002814203D315230226F64302E01423F6
:100D70000326F6432020C51AA9401746AF40DA40A3
:100D80000A4320460399D8400914731819055118CD
:100D9000039A3843D2075140AC4009D00122944015
:100DA00006D30022401C5141002C01D140084000D4
:100DB0001E4A934212D3012203989206904207DB07
:100DC0000520400709181A480143C012414004E0B9
:100DD000032040070818C10FC907002009B0F0BD63
:100DE0000020F107FAE705180C464C4111486D4206
:100DF000A04115D394181A465A410E4864429041B6
:100E00000ED301204A004005824209D35A00824293
:100E100006D35940C90F084AC90700201143DDE72E
:100E200000200649DAE700000000FF07FE07000087
:100E3000FFFFFF7F0000E0FF0000F07F0000F87F71
:100E40000121C9050123411842001B06D3185B0E7E
:100E50000AD0C1100722D206891840075242D14257
:100E600001D5520089187047090208D50146002AA9
:100E700003D0C10FC90700207047104670474202D7
:100E800002D0002002497047072109050143F4E719
:100E90000000F87FF0B5FF252D04C609C209FF2721
:100EA00004462E400137CB093E4348402A402B40A0
:100EB0000746002A6BD0002B69D0AA4267D0AB420C
:100EC00065D0002800DA32460125ED0529432C4380
:100ED00009022002090AD21A4B0C7F24E31A434C60
:100EE000000A7C44E35C7D242404121914145B0082
:100EF000A218884201D3521C00E0400049420C462F
:100F00005C4324115C43DB016415E318040A5C4371
:100F1000C502200D0C4644436419250A5D43230392
:100F2000EC0C0D46654300030019EB184C42A3423C
:100F300001D35B18401CD4052018002B07D05B00A0
:100F4000C91804D3401C002901D1400840003F21AA
:100F500089048A4209D3002A08DC1106090F04D04B
:100F6000032149074018C00FC007F0BD012241000E
:100F7000120689187F2252069142F6D205214907AE
:100F8000C84201D59010F0BDFF20C005F0BD002F74
:100F900000DA32461648AA4207D2AB4205D21902FD
:100FA000090E17D0F80FC007F0BDFF2563002D060E
:100FB000AB42F9D84900A942F6D8AB4201D1A942C7
:100FC000F2D0A94201D1002101E061004908D00519
:100FD0000843F0BD1102090EFBD0FF200243D005EB
:100FE000F0BD0A460146104654E700007E55000059
:100FF0000000C07F10B501469E240002CA15A30759
:10100000002A02D01843002A04DBA21A002A0CDDB1
:10101000D04010BD1206120E01D140004008A21AA5
:1010200003D4D04040420028F3DDFF2248001206DE
:10103000904201D9002010BDC817C043584010BDD0
:101040000102C21504D00123DB071943002A0ADB81
:101050009E239A1A02D40846D0407047FF224100CE
:101060001206914201D900207047C017C043704753
:101070001F22030C02D10F2200041CD0030E01D149
:101080000002083A030F01D10001121F830F01D1A2
:101090008000921E002801DB4000521ED20551182C
:1010A000021251181922904004D3491C002801D182
:1010B0004908490008467047C10FC90700D040429F
:1010C000012292071143D3E701218907D0E710B528
:1010D00000F096F8006810BD10B5044600F090F8D6
:1010E000046010BD1F22030C02D10F22000402D0A5
:1010F000030E03D004E00020014670470002083AC6
:10110000030F01D10001121F830F01D18000921E35
:10111000002801DB4000521E120551184205C01282
:10112000411810467047C10FC90700D04042012244
:1011300092071143D6E701218907D3E770B5054629
:101140004800440D124B0020002C0AD0634008D008
:101150009A4206DA6642B24203DD12054019514155
:1011600070BD002C08D0002B09D0C90FC907002A78
:10117000F6DB084A114370BDC90FC90770BD284688
:101180000A03104302D00020034970BD284670BDF9
:10119000FF0700000000F07F0000F87F10B5FF237C
:1011A0001B0644009C421DD84C009C421AD80346A2
:1011B000124A0B4307D4401A02D3EFF3008010BD4C
:1011C000EFF3008010BD081A06D2EFF30080012172
:1011D0009043C907084302E0EFF30080904380F397
:1011E000008810BD0D231B041A4204D011460020B4
:1011F00000F00AF810BD00F067F810BD0000009084
:101200000048704780100020C80212D54803400FE4
:10121000002804D0C803C043012188407047EFF381
:1012200000800001000903210907084380F30088BA
:101230007047002070470000F8B5224C4E00069D14
:10124000A6420AD8A64201D1002806D15E00A642D5
:1012500003D8A6420AD1002A08D00D24240425422E
:101260002CD029460020FFF7CFFFF8BD0C461C43C9
:101270000CD4994202D0EFF30080F8BD904202D026
:10128000EFF30080F8BDEFF30080F8BD09242407D8
:10129000E5008B4206D0EFF30080A043591A06D236
:1012A000284304E0101A05D3EFF30080A04380F335
:1012B0000088F8BDEFF30080A043F1E7009500F04F
:1012C00037F8F8BD0000E0FF10B5024800F03AF82A
:1012D00010BD00000000C07F004870478010002053
:1012E0007546FFF7F9FFAE46050069465346C0084C
:1012F000C000854618B020B5FEF74CFF60BC002743
:101300004908B6460026C0C5C0C5C0C5C0C5C0C5D1
:10131000C0C5C0C5C0C5403D49008D46704710B529
:101320000446C046C0462046FEF707FF10BD000039
:1013300010B500200249029A00F004F810BD000028
:101340000000F87F10B50C461107090F092904D0D9
:101350000A290AD008290CD104E011460820FFF719
:1013600053FF06E0510606D501E0510601D50120E4
:10137000C007214610BDD10607D501010909CC08D7
:101380004907000E0006044309E0410F2002490707
:10139000000A0143200E00061D22D14101430846E8
:1013A000E7E7000001491820ABBEFEE72600020077
:1013B000704770B58C180578401C6B075B0F01D126
:1013C0000378401C2A1106D10278401C03E00678FD
:1013D000401C0E70491C5B1EF9D12B0705D400235D
:1013E000521E0DD40B70491CFAE70378401CCB1A2F
:1013F000921C03E01D780D70491C5B1C521EF9D530
:10140000A142D8D3002070BD70B50546AC6AA06D6E
:1014100050210840002831D1A06D01214902084324
:10142000A065206802F0C1FB002823D0A07E002820
:1014300020D1206800680821084008281AD12068B7
:1014400002F0ADFB00280DD1206840680C218843D4
:1014500021684860A06DFF210131884301210843C4
:10146000A06507E0A06D20210843A065E06D012183
:101470000843E065204600F009FC0CE0A06D102157
:101480000840002803D0204600F002FC03E0206D55
:10149000416B2846884770BD70B50546AC6AA06DA3
:1014A00040210843A065E06D04210843E065204623
:1014B00000F0EEFB70BD70B50446A56A284600F04A
:1014C000E6FB70BD38B5044600200090206802F0AD
:1014D00057FB002858D1206880682C490840002814
:1014E00009D0A06D10210843A065E06D01210843DB
:1014F000E065012038BD206802F034FB244802F08A
:1015000039FB0121C905084000280DD02149224896
:101510000068FEF7B2FE401C009002E00098401EFA
:10152000009000980028F9D1607E01282CD001F0AD
:1015300087F805461FE0206802F022FB002802D150
:10154000206802F00FFB01F07BF8401B022812D943
:1015500020680068C007C00F0121484048400028AB
:1015600009D1A06D10210843A065E06D0121084359
:10157000E0650120BEE720680068C007C00F0121B8
:10158000484048400028D6D00020B3E7170000802C
:1015900008270140400D03001400002000200249EC
:1015A000096848637047000044030020024803496B
:1015B0000968486370470000F82A000044030020CF
:1015C0007047000010B5024800F098FD10BD000003
:1015D0002804002010B500BF10480068012149020E
:1015E0000840400A002805D000BF08460B49486063
:1015F00000BF0EE000BF094800680121C902084091
:10160000C00A002805D000BFC8100449486000BFC8
:1016100000BF034800F072FD10BD00000000024052
:10162000E802002070B50446206C8008800009495B
:10163000401860642178084608381421FEF71DFE22
:10164000054604488030A064E906C90E01208840A0
:10165000E06470BD0008024002799106890E4A1EBE
:101660009200064BD2180265044A403242654A1E77
:1016700093079B0F01229A40826570470009024040
:1016800070B5856CC46C6C60046D002C02D0456D27
:10169000846D6C600C4C64681C26056C354001261A
:1016A000AE403443084D6C60046863608468102C5D
:1016B00004D10468A2600468E16003E00468A160EA
:1016C0000468E26070BD00000000024070B504468E
:1016D0006618B61CB618F0B2002504E05E5D361838
:1016E000F0B26E1CF5B28D42F8DBC643F0B270BDAD
:1016F00072B600BFFEE7000070B5002419480078FC
:10170000142815DA18490888FFF7DEFC0646174941
:1017100004F064FD0546FFF793FC1249097849007F
:10172000134A50520F480078401C0E49087002E0DE
:1017300000200C490870002006E041000C4A515A74
:1017400009198CB2411CC8B21428F6DB2046FFF7F9
:10175000BBFC06460749FFF79DFB0546FFF74AFC21
:1017600070BD00007000002070020020FDCF7F3EA1
:10177000480000200000A04170B5002419480078FE
:10178000142815DA18494888FFF79EFC06461749C1
:1017900004F024FD0546FFF753FC1249097849007F
:1017A000134A50520F480078401C0E49087002E05E
:1017B00000200C490870002006E041000C4A515AF4
:1017C00009198CB2411CC8B21428F6DB2046FFF779
:1017D0007BFC06460749FFF75DFB0546FFF70AFC61
:1017E00070BD00009A00002070020020FDCF7F3EF7
:1017F000720000200000A041F0B587B000241D4811
:10180000007814280CDA1C4880881A4909784900A5
:101810001A4A505217480078401C1649087002E0D6
:10182000002014490870002005E04100134A515A75
:101830000C19411CC8B21428F7DB2046FFF744FC02
:101840000746FFF7FDFA05460D4A0E4BFFF7D4F9A0
:1018500000220D4B01910090FEF7AAFF00220B4BD6
:1018600003910290FEF7A4FF05910490FEF7B6FDE8
:1018700007B0F0BDCA00002070020020A2000020C6
:101880006666666666660A400000344000FEAF4049
:10189000F0B587B000241D48007814280CDA1C48E5
:1018A000C0881A49097849001A4A505217480078E6
:1018B000401C1649087002E00020144908700020FE
:1018C00005E04100134A515A0C19411CC8B21428B2
:1018D000F7DB2046FFF7F8FB0746FFF7B1FA0546AE
:1018E0000D4A0E4BFFF788F900220D4B0191009035
:1018F000FEF75EFF00220B4B03910290FEF758FFAC
:1019000005910490FEF76AFD07B0F0BDF4000020D9
:1019100070020020CC0000206666666666660A409B
:101920000000344000FEAF40F0B585B005460C46DF
:101930000020039002900121C9072869884203D042
:10194000091D2869884200D100E000BF00BF542073
:10195000405D012802D1022005B0F0BD01215420D4
:10196000415500BF286802F01AF9002876D1606856
:10197000022874D00121C9072869884203D0091DB3
:101980002869884208D128682168826A4B035B0B6A
:101990001A43826200BFC6E02179CA06D20E0F2127
:1019A0009140286E884321684903490B002905D1DD
:1019B0001F22920621681140890E92E02178C90702
:1019C000C90F002901D000218BE0022221681140BB
:1019D000022901D1012184E0042221681140042957
:1019E00001D102217DE0082221681140082901D19E
:1019F000032176E0102221681140102901D1042131
:101A00006FE0202221681140202901D1052168E0E2
:101A1000402221681140402901D1062161E0802245
:101A200021681140802901D107215AE0FF220132AB
:101A300021681140914201D1082152E00122520255
:101A400021681140914201D109214AE0012292020C
:101A500021681140914203D10A2142E0FAE0BAE044
:101A60000122D20221681140914201D10B2138E0BC
:101A70000122120321681140914201D10C2130E072
:101A80000122520321681140914201D10D2128E029
:101A90000122920321681140914201D10E2120E0E0
:101AA0000122D20321681140914201D10F2118E097
:101AB0000122120421681140914201D1102110E04D
:101AC0000122520421681140914201D1112108E004
:101AD0000122920421681140914201D1122100E0BB
:101AE00000212279D206D20E914008432866606810
:101AF0008008401CE969884215D828682268616816
:101B00000192836ACF06FF0E0F22BA4093430F273C
:101B1000BF06019A3A40920ECF06FF0EBA40134319
:101B2000836200BF00BF286821680091A16801910D
:101B30004269009909028A4300990B024C4F0199AE
:101B400039400B401A43426100BF2068C00FC007F4
:101B5000002821D0474802F00DF806464649206883
:101B600088421AD1C0023040002816D1C802304342
:101B70000146404802F02CF8404941480068FEF711
:101B80007CFB401C0C214843029002E00298401E5E
:101B9000029002980028F9D162E03A492068884210
:101BA0000AD180023040002806D188023043014625
:101BB000304802F00DF853E03349206888424FD195
:101BC0004002304000284BD14802304301462948AA
:101BD00001F0FEFF44E00121C9072869884203D0D3
:101BE000091D2869884208D128682168826A4B0348
:101BF0005B0B9A43826200BF00BF2068C00FC00722
:101C000000282DD01B4801F0B5FF06461A49206870
:101C1000884207D1C202304690430146154801F080
:101C2000D7FF1DE017492068884207D1820230465D
:101C3000904301460F4801F0CBFF11E012492068A4
:101C400088420DD14202304690430146094801F0D6
:101C5000BFFF05E0A86D20210843A865012003907F
:101C600000BF00215420415500BF039874E60000D6
:101C700000FFFF0708270140001000B0400D0300DF
:101C800014000020004000B8002000B470477047E6
:101C900070470000FEB50446002002900025002693
:101CA0000190002C01D10120FEBD3C20005D0128E7
:101CB00000D100BF2069002805D001214905206915
:101CC000884200D100BFA06D002807D1204600F057
:101CD0002DF90020E065002154200155206801F015
:101CE00057FF002817D120688168894A11400122D6
:101CF00012071143816000BF864987480068FEF7DC
:101D0000BCFA401C4000019002E00198401E019086
:101D100001980028F9D1206801F03AFF002809D184
:101D2000A06D10210843A065E06D01210843E06526
:101D300001200290206801F032FF0746A06D1021BB
:101D4000084000287ED1002FFCD1A06D09018843F6
:101D500002210843A065206801F012FF002872D11B
:101D6000217E8903A0680843617EC9030843A17EE0
:101D700049030843216B002902D00121090300E037
:101D800000210843E16808432169C90FC9070029F8
:101D900003D021694900490801E0012149050843B0
:101DA0002C21095D4900084305432020005D0128DE
:101DB0000ED1A07E002803D101200004054307E0D6
:101DC000A06D20210843A065E06D01210843E06576
:101DD000606A002806D0FF21C131606A0840A16A0C
:101DE000084305432068C0684C49084028432168DF
:101DF000C8606068800F8007E16C084306433C20A0
:101E0000005D01280BD16068800F80070121084325
:101E1000216C0843616C0843A16C084306432068A9
:101E200000693F4908403043216808610321890760
:101E30006068884216D049426068884212D04900E2
:101E4000606801E05BE00DE088420BD035488068B7
:101E50000F21890488430F229204616811400843CE
:101E6000304988600021626B206801F0B8FE2E497D
:101E7000A26B206801F0B3FE2069002807D120681A
:101E8000806A0F21C94308432168886211E001215B
:101E90004905206988420CD1207F401E4007C10EB1
:101EA0000F20C0438840216E08432168896A216859
:101EB000886221680020009100994969042202404B
:101EC00007239340194004220240D140606B8142B5
:101ED00008D10020E065A06D02218843012108435C
:101EE000A06512E0A06D0221884310210843A0657F
:101EF000E06D01210843E0650120029005E0A06D3E
:101F000010210843A065012002900298CCE6000051
:101F1000E8FFFF7F400D0300140000200102DEFFF8
:101F200002FCFF1F0027014004FFFF0710B586B029
:101F30000446142101A8FEF79EF93749206888421B
:101F400067D100BF354800680121090508433349BE
:101F5000086008460068012109050840009000BF9C
:101F600000BF00BF2D484038406B012108432B497A
:101F7000403948630846406BC007C00F009000BF5F
:101F800000BF00BF0846406B022108432349403987
:101F900048630846406B02210840009000BF00BF24
:101FA00013200190032002900020039001A9052036
:101FB000000700F049FA0120019003200290002060
:101FC000039001A9164800F03FFA16481649086028
:101FD00005204860002114488160C16080210161B2
:101FE00049004161890081612021C16100210162B4
:101FF00000F014F9002801D0FFF77AFB00BF0A486F
:102000002065846200BF0423084A0349403100F080
:1020100065F906B010BD00000024014040100240E8
:10202000000400501C000240E80200207002002062
:10203000F8B504460E461746206801F0B0FD0028AA
:1020400050D100BF5420005D012801D10220F8BD0D
:1020500001215420015500BF2068C06808400028B5
:102060000DD1206801F08CFD002802D0206801F01D
:1020700071FD2068C068012108432168C8602046BE
:10208000FFF720FA0546002D2DD1A06D1749084015
:10209000FF2101310843A0650020E0651448216D4F
:1020A000C8621448216D08631348216D48631C20E1
:1020B0002168086000BF00215420015500BF20683E
:1020C0004068102108432168486022681146403169
:1020D0003B463246206D00F03AF90546206801F093
:1020E0006FFD00E002252846B1E70000FEF1FFFF8A
:1020F00009140008B71400089914000870B50446C4
:1021000045480568206806681C20216C01400420B1
:1021100088402840002820D00420304000281CD0CF
:102120002068006820210840002805D12068006848
:102130000421884321680860374840681C22216CCC
:10214000114004228A40104333494860206B002824
:1021500060D02046216B88475CE01C20216C014048
:10216000022088402840002828D002203040002843
:1021700024D02068006820210840002808D1206869
:1021800000680A2188432168086001212520015543
:10219000214841681C22206C1040022282401143D9
:1021A0001D48416000BF00212420015500BFE06AA6
:1021B00000282FD02046E16A88472BE01C20216CA4
:1021C0000140082088402840002823D008203040C3
:1021D00000281FD0206800680E218843216808600D
:1021E0000D4841681C22206C10400122824011439E
:1021F000094841600120E06301212520015500BF0D
:1022000000212420015500BF606B002802D0204629
:10221000616B884770BD00000000024010B50446A5
:10222000002C01D1012010BD2A4A2168881A1421EE
:10223000FEF723F880002064022125200155206844
:1022400000682549084021680860E168A0680843E3
:102250002169084361690843A1690843E1690843AA
:10226000216A0843216809680843216808602046FC
:10227000FFF7D8F901218903A068884201D1002025
:10228000606020798006800E616C0860A16CE06C53
:102290004860606800280CD06068042809D820468F
:1022A000FFF7DAF90020216D0860616DA06D4860CC
:1022B00003E0002020656065A0650020E063012147
:1022C0002520015500BF00212420015500BF00201A
:1022D000A9E70000080002400F80FFFFF8B50446A0
:1022E0000D4616461F460020009000BF2420005DCA
:1022F000012801D10220F8BD01212420015500BF91
:102300002520005D012817D102212520015500203C
:10231000E0632068006840084000216808603B4690
:10232000324629462046FFF7ABF9206800680121B4
:1023300008432168086008E08020E06300BF0021B6
:102340002420015500BF012000900098D3E7F8B584
:1023500004460D4616461F460020009000BF24206C
:10236000005D012801D10220F8BD01212420015582
:1023700000BF2520005D012844D102212520015500
:102380000020E06320680068400840002168086081
:102390003B46324629462046FFF772F9206B00285B
:1023A00006D0206800680E210843216808600BE011
:1023B000206800680421884321680860206800685C
:1023C0000A21084321680860606C00680121090443
:1023D0000840002805D0606C006809120843616C51
:1023E0000860206D002806D0206D0068FF210131B3
:1023F0000843216D086020680068012108432168B6
:10240000086008E08020E06300BF0021242001551F
:1024100000BF012000900098A6E7000070B50446B8
:1024200000F00EF906462546681C002802D0054833
:1024300000782D1800BF00F003F9801BA842FAD3E2
:1024400070BD00001000002070B503460A46002150
:10245000D7E001268E4014683440002C73D01579E3
:10246000AD07AD0F012D04D01579AD07AD0F022DCD
:1024700018D198684E000325B5400646AE43304655
:102480004E00D568B54028439860586801258D40B6
:102490000646AE4330461026556835402D098D401E
:1024A000284358601579AD07AD0F032D0BD0D868C0
:1024B0004E000325B5400646AE4330464E009568B3
:1024C000B5402843D8601579AD07AD0F022D15D161
:1024D000CD08AE001D462035A8594D07EE0E0F253C
:1024E000B5400646AE4330464E07F60E1569B54078
:1024F0002843CD08AD001E462036705118684E00A6
:102500000325B5400646AE4330461579AD07AD0FFD
:102510004E00B54028431860032636045568354000
:10252000002D6DD03A4D8E08B600A8598D07EE0EDD
:102530000F25B5400646AE43304605252D07AB4274
:1025400002D1002510E05BE0324DAB4201D1012504
:102550000AE0314DAB4201D1022505E02F4DAB42DF
:1025600001D1032500E005258E07F60EB54028436E
:10257000274D8E08B600A851254D603D28680546B8
:10258000A54328460126360555683540002D02D062
:102590000546254328461E4D603D2860686805466F
:1025A000A54328460126760555683540002D02D002
:1025B000054625432846164D603D6860144D20357C
:1025C00068680546A54328460126760455683540C7
:1025D000002D02D00546254328460D4D2035686064
:1025E00028680546A5432846012636045568354027
:1025F000002D02D0054625432846054D203528608C
:10260000491C1568CD40002D00D022E770BD0000A8
:10261000601802400004005000080050000C0050F8
:10262000024613690B40002B01D0012000E000207E
:102630007047002A01D0816100E08162704700008C
:102640000148006870470000080000200348006847
:1026500003490978401801490860704708000020C4
:102660001000002010B5002408480068FF21013147
:10267000084306490860032000F00AF8002801D04A
:10268000012401E000F034F8204610BD0020024093
:10269000F8B5044600251348007800281ED01148DC
:1026A00001787D20C000FDF7E8FD074639460E4859
:1026B0000068FDF7E2FD064600F0BEFC00280BD1E5
:1026C000042C07D200222146401E00F045F807489E
:1026D000046004E0012502E0012500E00125284610
:1026E000F8BD000010000020140000200C000020A5
:1026F00008B500BF0E480068012108430C49086076
:1027000008460068C007C00F009000BF00BF00BFB0
:1027100007484038C06B8905084305494039C863FC
:102720000846C06B09040840009000BF00BF08BD08
:10273000401002400146002909DB00BF00BFCB0664
:10274000DB0E01229A40034B1A6000BF00BF00BF9E
:102750007047000000E100E070B504460D461646E3
:102760002946204602F080FE70BD000070B5044688
:102770001148006803214902884320430E4908603C
:102780004815844216D10D4909680622514308466E
:102790000B49FDF772FD451C05E0002D01D06D1EB3
:1027A00001E0032070BD044840690121890208400E
:1027B0008842F2D00020F5E70070004014000020AD
:1027C00040420F0070B504460D46002C01D1012097
:1027D00070BD6B4800684007400FA84218D2684897
:1027E0000068C008C000284365490860FFF728FF5B
:1027F000064607E0FFF724FF801B6249884201D9A3
:102800000320E5E75E4800684007400FA842F1D189
:10281000022120680840022815D1042120680840C0
:10282000042807D1584880680721090388434018C5
:1028300055498860544880680F2109028843A1687F
:102840000843514988602078C007C00F002854D041
:102850006068012808D14C480068012149040840FB
:1028600000282ED10120B3E76068022808D146482D
:102870000068012149060840002822D10120A7E76D
:102880006068002808D1404800680121890208409A
:10289000002816D101209BE76068032808D13A4838
:1028A0004030006A0221084000280AD101208FE749
:1028B00035484030C06902210840002801D101207C
:1028C00086E731488068C008C000616808432E4927
:1028D0008860FFF7B5FE064607E0FFF7B1FE801BF4
:1028E0002849884201D9032072E7274880683821A7
:1028F00008406168C9008842EFD12148006840075C
:10290000400FA84218D91E480068C008C0002843DC
:102910001B490860FFF794FE064607E0FFF790FEAC
:10292000801B1849884201D9032051E714480068E8
:102930004007400FA842F1D1042120680840042834
:1029400008D111488068072109038843E1680843DA
:102950000D49886000F020F80B4989680F221202A7
:102960001140090A8900094A515CC906C90EC840CC
:102970000749086007480068FFF78AFE28E700005B
:102980000020024088130000001002403C63000851
:10299000140000200C000020FEB535488068382166
:1029A000084000280DD13248006809020840C10AD9
:1029B0000120884000902F480099FDF75EFC0446F6
:1029C00054E02B48806838210840082801D12A4C5F
:1029D0004CE02748806838210840102834D124482A
:1029E000C0688607B60F2248C068702108400009F9
:1029F000401C0190022E0FD0032E0CD11E480199CD
:102A0000FDF73BFC1A49C9687F2212021140090AEE
:102A1000484305460DE000BF16480199FDF72DFC1F
:102A20001349C9687F2212021140090A484305462A
:102A300000BF00BF0E48C068400F471C39462846FB
:102A4000FDF71BFC044611E0094880683821084066
:102A5000202801D1840209E0054880683821084017
:102A6000182802D17D24240200E000242046FEBD67
:102A7000001002400024F40000127A00FEB5044663
:102A8000002C01D10120FEBD2078C007C00F002816
:102A90006FD0F748876838210F40C0688607B60FA7
:102AA000102F01D1032E01D0082F0BD1F048006860
:102AB00001214904084000285BD06068002858D1F3
:102AC0000120E0E700BF012109046068884205D1C8
:102AD000E74800680843E649086021E00521090449
:102AE000606888420ED1E2480068012189040843E9
:102AF000DF49086008460068012109040843DC49F1
:102B000008600DE0DA480068012109048843D849CB
:102B1000086008460068012189048843D449086098
:102B200000BF6068002812D0FFF78AFD054606E066
:102B3000FFF786FD401B642801D90320A3E7CC489A
:102B400000680121490408400028F1D011E0FFF796
:102B500077FD054606E0FFF773FD401B642801D9A9
:102B6000032090E7C248006801214904084000287A
:102B7000F1D1022120680840022873D1BC48806846
:102B8000382108400746BA48C0688607B60F102F9C
:102B900001D1022E01D0002F36D1B54800680121A5
:102BA00089020840002804D0E068002801D10120F3
:102BB00069E7AF4840687F210902884361690902DB
:102BC0000843AB494860002F16D10846006807212A
:102BD000C902884321690843A5490860084600687E
:102BE0000722D2021040C20A012090400146A148AB
:102BF000FDF743FBA0490860A0480068FFF748FDC7
:102C0000002849D001203EE7E06800282BD09848F2
:102C100000680721C9028843216908439449086074
:102C2000084600688915084391490860FFF708FDC8
:102C3000054606E0FFF704FD401B022801D90320EA
:102C400021E78B4800680121890208400028F1D063
:102C5000874840687F210902884361690902084367
:102C60008349486018E082480068FF2101318843A9
:102C70007F490860FFF7E4FC054606E0FFF7E0FC4B
:102C8000401B022801D90320FDE679480068012194
:102C9000890208400028F1D108212068084008284E
:102CA00049D1734880683821084018280BD17048F2
:102CB0004030006A0221084000283CD0A06900286A
:102CC00039D10120DFE6A06900281AD068484030D9
:102CD000006A01210843664940310862FFF7B0FCF1
:102CE000054606E0FFF7ACFC401B022801D9032093
:102CF000C9E65F484030006A022108400028F1D050
:102D000019E05B484030006A4008400058494031B3
:102D10000862FFF795FC054606E0FFF791FC401BB3
:102D2000022801D90320AEE651484030006A022152
:102D300008400028F1D104212068084004287CD1F3
:102D4000002001904A4880683821084020280BD193
:102D500047484030C0690221084000286ED0A06872
:102D600000286BD101208EE64148C06B010F012085
:102D70008843002810D000BF3D48C06B01210907DF
:102D800008433B49C8630846C06B090408400090EB
:102D900000BF00BF0120019039480068FF210131C8
:102DA0000840002816D136480068084334490860B6
:102DB000FFF746FC054606E0FFF742FC401B0228F1
:102DC00001D903205FE62E480068FF210131084049
:102DD0000028F1D000BFA068012808D12448403065
:102DE000C0690121084322494031C86120E0A06840
:102DF00005280FD11E484030C069042108431C49F2
:102E00004031C8610846C069012108431849403172
:102E1000C8610DE016484030C069410849001448B7
:102E20004030C161C0690421884311494031C86103
:102E300000BFA068002816D001E040E03EE0FFF7A8
:102E4000FFFB054607E0FFF7FBFB401B0D498842EF
:102E500001D9032017E606484030C0690221084026
:102E60000028F0D01EE0FFF7EBFB054614E0000061
:102E7000001002400024F400140000200C00002088
:102E80000070004088130000FFF7DAFB401B664922
:102E9000884201D90320F6E56448C0690221084050
:102EA0000028F1D10198012808D160484038C06B52
:102EB0000121090788435D494039C86300BFE069C3
:102EC00000285CD0594840388068382108401028D4
:102ED0007CD0E069022853D1544840380068012171
:102EE00009068843514940390860FFF7A9FB0546A8
:102EF00006E0FFF7A5FB401B022801D90320C2E52D
:102F00004A48403800680121490608400028F0D1AD
:102F1000616A206A0843A16A09020843E16A08431A
:102F2000216B0843616B084340494039C968404AF6
:102F3000114008433D494039C860084600680121F6
:102F4000090608433949403908600846C068090441
:102F5000084336494039C860FFF772FB054606E072
:102F6000FFF76EFB401B022801D903208BE52F4899
:102F7000403800680121490608400028F0D050E0A0
:102F80002A4840380068012109068843274940390A
:102F90000860FFF755FB054606E0FFF751FB401BB5
:102FA000022801D903206EE520484038006801213D
:102FB000490608400028F0D11C484038C0681D4927
:102FC00008401A494039C8602BE0FFE7E069012852
:102FD00000D158E515484038C668B107890F206A06
:102FE00081421CD170203040616A884217D17F2015
:102FF00000023040A16A0902884210D11F2040041B
:103000003040E16A88420AD1072040063040216BF7
:10301000884204D1710F4907606B814201D00120C1
:1030200031E500202FE50000881300004010024029
:103030008C80C111FCFFFEEE70B504462546681E6B
:103040000949884201D901200CE0681E07494861FE
:103050000321081F02F008FA0020044988610720B4
:103060000861002070BD0000FFFFFF0000E000E0ED
:1030700010B50346002200BF3C20C05C012801D1EE
:10308000022010BD01243C20C45400BF100A0002DD
:10309000CC6820430246104603242402A0438C68D7
:1030A0002043024610460124A402A0434C6820435A
:1030B000024610460124E402A0430C682043024665
:1030C000104601242403A0430C6920430246104605
:1030D00001246403A0434C692043024610460124A6
:1030E000A403A0430C6B2043024610460F24240483
:1030F000A0430C8B240420430246104601242407DD
:10310000A043CC6920430246144C1868A0421CD14D
:1031100010460F242405A0430C8D240520430246AD
:10312000104601242406A0430C6A204302461046A0
:1031300001246406A0434C6A204302461046012441
:103140006407A043CC6A204302461868426400BF6B
:1031500000243C20C45400BF002092E7002C014012
:1031600030B502460B4600BF3C20805C012801D1EF
:10317000022030BD01253C20855400BF02253D20A2
:1031800085541068416810688468194D1068A84219
:1031900006D10F252D050846A8430146586801436E
:1031A00070250846A843014618680143106841602D
:1031B0000F4D1068A84208D00125AD071068A8423D
:1031C00003D00C4D1068A84207D180252046A843A3
:1031D0000446986804431068846001253D208554A6
:1031E00000BF00253C20855400BF0020C1E700003F
:1031F000002C01400004004010B50446002C01D111
:10320000012010BD3D20005D002805D100213C209B
:103210000155204600F026F802213D200155211DD0
:10322000206801F015FC01214820015500BF3E2017
:1032300001553F20015540200155412001554220B4
:1032400001554320015500BF00BF442001554520D2
:103250000155462001554720015500BF3D2001552D
:103260000020CEE738B504461A49206888422FD19D
:1032700000BF194800680121490408431649086045
:1032800008460068012149040840009000BF00BFC3
:103290001248134908602C204860102110488160B2
:1032A0000021C16080210161490041618900816183
:1032B0002021C16100210162FEF7B0FF002801D08A
:1032C000FEF716FA00BF064961620846846200BF35
:1032D00038BD000000440140401002400800024098
:1032E000280400207047000010B586B00446142161
:1032F00001A8FCF7C0FF012189072068884221D17D
:1033000000BF4248406B01210843404948630846DA
:10331000406BC007C00F009000BF00BF0120C0037A
:10332000019002200290002003900490022005905A
:1033300001A905200007FFF787F80021204600F0CB
:103340008FF961E03249206888423ED100BF2F48A2
:10335000406B012108432D4948630846406BC00774
:10336000C00F009000BF00BF00BF0846406B0221A5
:103370000843264948630846406B022108400090F4
:1033800000BF00BF80200190022002900020039027
:1033900004900120059001A905200007FFF754F8CB
:1033A00002200190029000200390049001200590DB
:1033B00001A91848FFF748F80421204600F050F909
:1033C0000C21204600F04CF91EE013492068884289
:1033D0001AD100BF0D48406B022108430B494863D6
:1033E0000846406B02210840009000BF00BFC801A2
:1033F000019002200290002003900490022005908A
:1034000001A90448FFF720F806B010BD00100240E3
:10341000000400400004005000440140F8B5044698
:103420000D461646002700BF3C20005D012801D153
:103430000220F8BD01213C20015500BF0C2E54D0C4
:1034400006DC002E09D0042E1ED0082E7ED135E0D9
:10345000102E64D0142EF9D179E02946206801F0AD
:10346000E9FB206880690821084321688861206899
:1034700080690421884321688861206880692969FE
:103480000843216888617EE02946206801F020FC1D
:10349000206880690121C902084321688861206889
:1034A00080690121890288432168886120688069D8
:1034B0002969090208432168886164E02946206877
:1034C00001F05CFC2068C069082108432168C861DC
:1034D0002068C069042188432168C8612068C069E8
:1034E000296908432168C8614DE02946206801F038
:1034F00099FC2068C0690121C90208432168C8619C
:103500002068C0690121890288432168C861206858
:10351000C0692969090208432168C86133E0294666
:10352000206801F0B9FC2068406D0821084321683B
:1035300048652068406D04218843216848652068FB
:10354000406D29690843216848651CE019E0294657
:10355000206801F0D5FC2068406D0121C9020843B4
:10356000216848652068406D0121890288432168EF
:1035700048652068406D296909020843216848654B
:1035800001E0012700BF00BF00BF00213C20015522
:1035900000BF38464DE710B50446002C01D101208C
:1035A00010BD3D20005D002805D100213C200155C3
:1035B000204600F027F802213D200155211D2068FA
:1035C00001F046FA01214820015500BF3E20015577
:1035D0003F20015540200155412001554220015511
:1035E0004320015500BF00BF44200155452001552F
:1035F000462001554720015500BF3D2001550020C0
:10360000CEE7000008B501229207016891420DD172
:1036100000BF1049C96B012211430E4AD163114604
:10362000C96BC907C90F009100BF11E00A4A0168C0
:1036300091420DD100BF0749C96B02221143054ACF
:10364000D1631146C96B02221140009100BF00BF37
:1036500008BD0000001002400004004070477047A1
:1036600070B504460D46002D02D13E20005D15E0E8
:10367000042D02D13F20005D10E0082D02D1402032
:10368000005D0BE00C2D02D14120005D06E0102D05
:1036900002D14220005D01E04320005D012801D0FD
:1036A000012070BD002D03D102213E2001551AE0FA
:1036B000042D03D102213F20015514E0082D03D130
:1036C0000221402001550EE00C2D03D102214120A2
:1036D000015508E0102D03D102214220015502E0DE
:1036E00002214320015501222946206801F008FAF1
:1036F0001E492068884207D01D492068884203D0AF
:103700001C492068884201D1012000E000200028E7
:1037100006D02068406C0121C90308432168486431
:1037200012492068884208D0012189072068884210
:1037300003D01149206888420FD1206886680F495C
:103740000E40062E0FD0C81F86420CD0206800689D
:10375000012108432168086005E020680068012114
:1037600008432168086000209BE70000002C01400E
:1037700000440140004801400004004007000100EF
:10378000FFB583B004460D46164600200290002D7A
:1037900002D13E20005D15E0042D02D13F20005DE6
:1037A00010E0082D02D14020005D0BE00C2D02D16D
:1037B0004120005D06E0102D02D14220005D01E0B5
:1037C0004320005D022801D107B0F0BD002D02D1D9
:1037D0003E20005D15E0042D02D13F20005D10E089
:1037E000082D02D14020005D0BE00C2D02D14120BC
:1037F000005D06E0102D02D14220005D01E0432073
:10380000005D012828D1002E02D00698002801D1A1
:103810000120D9E7002D03D102213E2001551DE0F2
:10382000042D03D102213F20015517E0082D03D1BB
:1038300002214020015511E00C2D03D1022141202D
:1038400001550BE0102D03D102214220015505E066
:1038500002214320015501E00120B5E7002D06D0EB
:10386000042D22D0082D3ED00C2D79D159E061498C
:10387000606AC1626049606A01636049606A41636D
:10388000206802463432606A01903146069BFEF79A
:103890005EFD002801D0012096E72068C068012164
:1038A000490208432168C8605DE05249A06AC162CC
:1038B0005149A06A01635149A06A416320680246E8
:1038C0003832A06A01903146069BFEF740FD002881
:1038D00001D0012078E72068C068012189020843EF
:1038E0002168C8603FE04349E06AC1624249E06A3A
:1038F00001634249E06A4163206802463C32E06A63
:1039000001903146069BFEF722FD002801D00120E0
:103910005AE72068C0680121C90208432168C860CD
:1039200021E03449206BC1623349206B0163334984
:10393000206B4163206802464032206B0190314683
:10394000069BFEF704FD002802D001203CE707E0BB
:103950002068C0680121090308432168C86002E0AB
:103960000120029000BF00BF029800283FD1012231
:103970002946206801F0C4F821492068884207D010
:1039800020492068884203D01F492068884201D11D
:10399000012000E00020002806D02068406C0121B2
:1039A000C90308432168486415492068884208D043
:1039B000012189072068884203D014492068884281
:1039C0000FD12068876812490F40062F0FD0C81FFB
:1039D00087420CD0206800680121084321680860F4
:1039E00005E020680068012108432168086002980A
:1039F000EAE60000234B0008934B0008D34B000875
:103A0000002C0140004401400048014000040040F7
:103A10000700010000BFFEE710B520214B48FEF76C
:103A2000FFFD002819D040214848FEF7F9FD002885
:103A300013D0402105200007FEF7F2FD00280CD02E
:103A4000202105200007FEF7EBFD002805D080218E
:103A50003E48FEF7E5FD002831D11420FEF7DEFCDC
:103A600020213A48FEF7DCFD002802D10120384928
:103A7000087040213548FEF7D3FD002802D101200F
:103A800033494870402105200007FEF7C9FD002892
:103A900002D101202E498870202105200007FEF761
:103AA000BFFD002802D101202949C8708021274884
:103AB000FEF7B6FD002802D10120254908712448EF
:103AC000007801280FD02248407801280BD02048E8
:103AD0008078012807D01E48C078012803D01C48F0
:103AE0000079012831D11420FEF798FC20211748D5
:103AF000FEF796FD012802D10020154908704021EB
:103B00001248FEF78DFD012802D1002010494870AF
:103B1000402105200007FEF783FD012802D1002087
:103B20000B498870202105200007FEF779FD012848
:103B300002D100200649C87080210448FEF770FDBC
:103B4000012802D100200249087110BD0004005074
:103B5000200000208168024A1140891C8160704762
:103B6000E8FFFF7F8168024A1140491C816070476D
:103B7000E8FFFF7F01460868072292051040704762
:103B800001468868C007C00F01225040504070476E
:103B900001468868012212071040000F7047014655
:103BA000886804221040800870470146C8680322D4
:103BB00092021040002801D1012070470020FCE74C
:103BC0008168024A1140091D81607047E8FFFF7F4C
:103BD000026807239B059A430A430260704730B589
:103BE000436904240D4625400724AC40A343042424
:103BF0000C401546A5402B43436130BD30B503460C
:103C0000054C645C1C5903252D03AC431443024D41
:103C10006D5C5C5130BD00008C62000830B503461D
:103C2000054C645CE4186468240C24041443024DBD
:103C30006D5CED186C6030BD8C62000830B50346D9
:103C4000044C645C1C59044D2C401443014D6D5CC4
:103C50005C5130BD8C620008EFBFFFFF10B503461A
:103C6000024C645CE418E26010BD00008C62000845
:103C700030B50346044C645C1C598025AC431443A6
:103C8000014D6D5C5C5130BD8C62000830B503465F
:103C9000054C645C1C590325AD02AC431443024D32
:103CA0006D5C5C5130BD00008C62000830B503468D
:103CB000044C645C1C592025AC431443014D6D5CDD
:103CC0005C5130BD8C62000810B50346024C645C48
:103CD000E418A26010BD00008C62000830B50346F5
:103CE000044C645C1C594025AC431443014D6D5C8D
:103CF0005C5130BD8C62000870B5094C4440A40A88
:103D0000E5002B1B8C00074D64199D006459A40924
:103D1000A40114438D00034EAD199E00AC5170BD3B
:103D2000000002400008024030B50346054C645CC8
:103D30001C5903252D02AC431443024D6D5C5C51AC
:103D400030BD00008C620008F0B502460B4600262C
:103D50006AE00124B44019682140002963D0586802
:103D6000012802D05868022815D1986894680D4639
:103D70004D436F00ED19AC430D464D4345432C4375
:103D8000946000BFD86854688C430D4645432C436B
:103D9000546000BF00BF1869D4680D464D436F00E2
:103DA000ED19AC430D464D4345432C43D46000BF51
:103DB0005868022829D1FF2911D85869146A0D467C
:103DC0004D434D434D432F017D1BAC430D464D43A9
:103DD0004D434D4345432C43146200BF15E05F69DA
:103DE000080A40430C0A60430C0A60430401241A89
:103DF000506AA0430C0A64430D0A6C430D0A6C43DD
:103E00007C432043506200BF00BF586814680D46D1
:103E10004D436F00ED19AC430D464D4345432C43D4
:103E2000146000BF00BF761C1868F040002890D1D5
:103E3000F0BD10B5044600F01DFD2060206800F0C4
:103E4000EFFC6060606800F001FDA06010BD000044
:103E5000F8B504460025032C2BD100BF1648406955
:103E60002040210408432104401A17D0012804D01F
:103E7000022806D0032810D109E000F0FBFC05461B
:103E800016E000F01DF8012800D10C4D10E000F004
:103E900021F8012800D1C5030AE000BF00F0EAFCC8
:103EA000074600F0BDFC064600F0D0FC054600BF0A
:103EB00000BF2846F8BD0000401002400024F40076
:103EC00003480068012189020840800A7047000009
:103ED000001002400248C0690221084040087047B3
:103EE000401002400248C06870210840704700003E
:103EF000001002400248C0688007800F7047000031
:103F0000001002400348C0687F2109020840000AEF
:103F10007047000000100240F0B585B005460C4621
:103F200001270026284600F04DF8002841D12169DC
:103F3000A068084361690843E169084329681E4A8B
:103F4000114008432860E068696803221203914326
:103F50000143696000BFA069A96812119143014340
:103F6000A96000BF1548854204D10320FFF770FF08
:103F7000064606E01248854203D101A8FFF759FF23
:103F8000039E002E0CD06068002809D000276068CE
:103F9000009031462846E369226800F01BF800BF14
:103FA0002068E96A0909090182B21143E96200BF88
:103FB00000BF384605B0F0BDF369FFEF003801409F
:103FC0000044004001460868C007C00F012250406D
:103FD00050407047FFB583B0064614460C9D0B2C2D
:103FE0002FD8002D2DD00121C9030698884219D160
:103FF0002006800D144A11580498FCF73EF9400041
:104000006908401829460190FCF737F987B20F4834
:10401000384002903807400F0299084302900298F6
:10402000F0600EE02006800D074A11580498FCF756
:1040300024F96908401829460190FCF71EF980B25E
:10404000F06007B0F0BD000004630008F0FF00005E
:1040500010B5FDF751FB45490860FDF78DFB44495C
:104060000860424800684349884203DD40480068D0
:10407000884202DC0120404908703C4800683D4904
:10408000491D88420ADD3A480068884206DD3B48FF
:104090000078052802DD002037490870364800788E
:1040A000012861D1FEF7CCFA3549096864318842AC
:1040B0005AD932480078002807D130480078401C8F
:1040C0002E490870FDF772FA4AE02C480078012862
:1040D00007D12A480078401C28490870FDF75EFA8D
:1040E0003EE026480078022807D1FDF75FFA234812
:1040F0000078401C2149087032E0204800780328ED
:1041000007D11E480078401C1C490870FDF746FA8C
:1041100026E01A480078042807D118480078401C87
:1041200016490870FDF742FA1AE01448007805288D
:1041300007D112480078401C10490870FDF72EFA8C
:104140000EE00E480078322805DA0C480078401C52
:104150000A49087004E0002008490870FDF71EFABB
:10416000FEF76EFA0649086010BD00001800002036
:104170001C0000204E020000A00000209B00002038
:104180009C0000200EB50020009001900290304865
:10419000304908600005486000212E488160C160F8
:1041A0000121490501610421416100210176417627
:1041B000012181760421C1610021416281620121D6
:1041C000243001720021243801634163816324306B
:1041D00001762438C164FDF75DFD002801D0FDF7AC
:1041E00087FA01200090002001900290694619484A
:1041F000FDF79AFB002801D0FDF77AFA16480090E7
:104200000420019069461348FDF78EFB002801D079
:10421000FDF76EFA114800900820019069460D489C
:10422000FDF782FB002801D0FDF762FA0C480090F0
:104230000C20019069460748FDF776FB002801D065
:10424000FDF756FA042207490248FDF7F1FE0EBDBC
:10425000002401408402002002000004100000102D
:10426000000100207002002008B500BF1248806BDA
:1042700001210843104988630846806BC007C00FBE
:10428000009000BF00BF002211460920FEF764FA2B
:104290000920FEF74FFA002211460A20FEF75CFAC9
:1042A0000A20FEF747FA002211460B20FEF754FAC7
:1042B0000B20FEF73FFA08BD0010024000B587B0A2
:1042C000142102A8FBF7D7FF00BF3948406B042137
:1042D0000843374948630846406B04210840019071
:1042E00000BF00BF00BF3248406B01210843304986
:1042F00048630846406BC007C00F019000BF00BF75
:1043000000BF0846406B022108432949486308461C
:10431000406B02210840019000BF00BF00222549E8
:104320002548FEF786F900221B2109020520000717
:10433000FEF77FF9002218212048FEF77AF91D4880
:1043400002900120039000200490059002A91A48D1
:10435000FEF77AF86020029000200390049002A9F2
:1043600005200007FEF770F81B20000202900120D4
:10437000039000200490059002A905200007FEF795
:1043800063F818200290012003900020049005900B
:1043900002A90A48FEF758F8E02002900020039096
:1043A000049002A90548FEF74FF807B000BD0000D1
:1043B0000010024040C000000008005000040050FF
:1043C00000B595B01C210EA8FBF755FF342101A8BC
:1043D000FBF751FF23482449086000204860002172
:1043E000214881605021C16000210161416180212B
:1043F0008161FEF701FF002801D0FDF779F91A4825
:10440000FFF7C9F8002801D0FDF772F960200E907F
:1044100000200F9010901190129013901490002291
:104420000EA91148FEF7FAFF002801D0FDF760F948
:104430000020019002900390049005900120400319
:104440000690002007900D9001A90748FEF710FE86
:10445000002801D0FDF74CF90348FEF745FF15B0E1
:1044600000BD000000440140DC03002000B58BB01B
:104470000020089009900A901C2101A8FBF7FBFE80
:104480000120800718490860032048600021164871
:1044900081607D210902C160002101618161FFF716
:1044A0007AF8002801D0FDF723F9002008900A903F
:1044B00008A90D48FEF754FE002801D0FDF718F9B1
:1044C000602001900020029003900590002201A935
:1044D0000548FEF7A3FF002801D0FDF709F90248BF
:1044E000FEF702FF0BB000BD4403002000B58BB007
:1044F0000020089009900A901C2101A8FBF7BBFE40
:104500001D481E4908600020486000211B4881604A
:104510007D214901C160002101618161FFF73BF804
:10452000002801D0FDF7E4F8002008900A9008A9BF
:104530001248FEF715FE002801D0FDF7D9F86020DB
:1045400001900020029003900590042201A90B48DD
:10455000FEF764FF002801D0FDF7CAF80C2201A97C
:104560000648FEF75BFF002801D0FDF7C1F80348BD
:10457000FEF7BAFE0BB000BD00040040900300201F
:1045800000B58FB0202107A8FBF775FE182101A800
:10459000FBF771FE012040046849C96B0143674A7B
:1045A000D1631146C96B0140009100BF00BF0120DB
:1045B0001146496B014351631146496B014000911B
:1045C00000BF00BF04200190022002900020039051
:1045D000049005900120069001A905200007FFF72F
:1045E000B3FB082001900220029000200390049069
:1045F00005900120069001A905200007FFF7A4FB04
:10460000342202214E48FFF777FB002202214C485A
:10461000FFF714FB002202214948FFF7EFFA20229E
:1046200002214748FFF742FB002202214448FFF7DE
:1046300055FB802202214248FFF71AFB002202218B
:104640003F48FFF771FB002202213D48FFF71EFBA8
:10465000352203213A48FFF74FFB10220321384847
:10466000FFF7ECFA002203213548FFF7C7FA0022D2
:1046700003213348FFF71AFB002203213048FFF7DC
:104680002DFB802203212E48FFF7F2FA002203219E
:104690002B48FFF749FB002203212948FFF7F6FAD0
:1046A00000211C2000F0A4FE1C20002809DB00BF14
:1046B00000BFC206D20E01219140224A116000BF04
:1046C00000BF00BF002007901F48089000200990FD
:1046D0000A900B900C200C9000200D900E9007A9D2
:1046E0001A48FFF719FC00BF184840680921C902A1
:1046F000884316494860084680682A218843134940
:10470000886000BF00BF08460068012108430F49C8
:10471000086000BF00BF00BF0C48C0690121490507
:104720000840400D0028F6D000BF0848C069490085
:104730000840800D0028EED00FB000BD00100240F0
:104740000000024000E100E040420F000044004051
:1047500000BFFEE710B50022012109030520000774
:10476000FDF767FF10BD10B50122110305200007FA
:10477000FDF75FFF10BD10B500220121C902052021
:104780000007FDF756FF10BD10B50122D10205202C
:104790000007FDF74EFF10BD704700001CB509A1D2
:1047A00003C901910090C82168468170CA214171F6
:1047B0004079C043C1B2684641716946062000F0A5
:1047C00049FC1CBDFFFFFF020000000010B50022E5
:1047D00010210248FDF72DFF10BD0000000400501D
:1047E00010B5012208210448FDF723FF01224021D2
:1047F0000248FDF71EFF10BD0004005000080050E5
:1048000010B5002208210448FDF713FF00224021C3
:104810000248FDF70EFF10BD0004005000080050D4
:10482000014600BF074880680F2212021040104066
:10483000000A8000044A105CC206D20E0846D0402E
:1048400070470000001002403C630008014600BFB2
:1048500006488068072212031040000B8000044ABB
:10486000105CC206D20E0846D040704700100240CD
:104870007C63000870B500BF11488068382108408B
:1048800000280BD0082802D0102806D101E00D4CDA
:1048900012E000F01BF804460EE000BF0848006874
:1048A0000721C9020840C10A01258D402946064852
:1048B000FBF7E3FC044600BF00BF204670BD0000CC
:1048C0000010024000127A000024F400FEB5FFF749
:1048D00011FB01900198022802D0032804D101E0C5
:1048E0000D4C03E00D4C01E00B4C00BF00BF00BFBE
:1048F0000B48C068400F451CFFF7F4FA0009471C3D
:10490000FFF700FB604339460090FBF7B6FC064614
:104910002946FBF7B2FCFEBD0024F40000127A0029
:1049200000100240F0B59BB007460E465C2104A87B
:10493000FBF7A1FC224903C90391029000200190DA
:104940000225B8191E2801DD1BB0F0BDC82228467B
:10495000691CCDB202A90A54B01CC2B22846691C17
:10496000CDB202A90A5400222846691CCDB202A980
:104970000A54002409E0381912490A5C2846691CC7
:10498000CDB202A90A54601CC4B2B442F3DB0224C3
:1049900007E002A8015D01980818C0B20190601CF0
:1049A000C4B2AC42F5DB0198C043C2B22846691CD0
:1049B000CDB202A90A54284600F04CFB00BFC3E761
:1049C000DC6300084C020020704710B5FDF73EFE86
:1049D00010BD00B593B0382105A8FBF74CFC0020B2
:1049E000019002900390049001204002FDF7BEFE6A
:1049F00002200590C00108900020099040200A90F4
:104A000002200C9002210D9100210E9108210F919E
:104A100001041091010611910107129105A8FEF7FA
:104A20002DF8002801D0FCF763FE0720019002203A
:104A30000290002003900490022101A8FDF7C2FE1D
:104A4000002801D0FCF754FE13B000BD70470000F1
:104A500010B50268254B984206D001239B07984267
:104A600002D0234B984205D170241346A3431A4623
:104A70004B681A431D4B98420FD001239B07984265
:104A80000BD01B4B984208D01A4B984205D01A4BBA
:104A9000984202D0194B984206D1032424021346AF
:104AA000A3431A46CB681A4380241346A3434C6998
:104AB00023431A4602608B68C3620B6883620B4B08
:104AC000984205D00C4B984202D00C4B984201D131
:104AD0000B690363012343610369DB07DB0F002BD1
:104AE00003D003695B085B00036110BD002C01402B
:104AF0000004004000200040004401400048014004
:104B000070B5CD06ED0E0124AC402346046A9C43EB
:104B10000462046ACE06F60E1546B5402C430462C4
:104B200070BD70B50546AC6A606AA84208D1012024
:104B30002077E869002826D101213E20015522E096
:104B4000A06AA84208D102202077E86900281AD17B
:104B500001213F20015516E0E06AA84208D1042057
:104B60002077E86900280ED10121402001550AE094
:104B7000206BA84207D108202077E869002802D1DD
:104B80000121412001552046FEF768FD00202077D5
:104B900070BD70B50546AC6A606AA84202D10120BA
:104BA000207710E0A06AA84202D1022020770AE014
:104BB000E06AA84202D10420207704E0206BA842DA
:104BC00001D1082020772046FEF749FD00202077FC
:104BD00070BD70B50546AC6A606AA84205D1012077
:104BE000207701213E2001551DE0A06AA84205D191
:104BF0000220207701213F20015514E0E06AA842FD
:104C000005D1042020770121402001550BE0206BC5
:104C1000A84205D10820207701214120015502E05A
:104C200001213D2001552046FEF75CFB0020207746
:104C300070BD000070B5026A056A6D086D000562FE
:104C4000436884691E4D2C40A408A4000D682C43C1
:104C500002261546B5432A468D682A43194DA842B7
:104C600000D107E0184DA84200D103E0174DA8423B
:104C70000AD100BF08261546B5432A46CD682A4307
:104C800004261546B5432A460E4DA84205D00E4DC2
:104C9000A84202D00D4DA8420CD1FF2601361D4678
:104CA000B5432B4676001D46B5432B464D692B4335
:104CB0008D692B43436084614D684563026270BD1A
:104CC0008FFFFEFF002C01400044014000480140DE
:104CD00070B5026A056A1026B543056243688469A7
:104CE000224D2C40032636022546B5432C460D683E
:104CF0002D022C4320261546B5432A468D682D01EA
:104D00002A431B4DA84200D107E01A4DA84200D10A
:104D100000BF194DA8420BD10AE080261546B543C5
:104D20002A46CD682D012A4340261546B5432A461A
:104D30000F4DA84205D00F4DA84202D00E4DA842FB
:104D40000ED10126B6021D46B5432B4676001D4600
:104D5000B5432B464D69AD002B438D69AD002B4308
:104D6000436084614D688563026270BDFF8FFFFE02
:104D7000002C0140004401400048014070B5026A27
:104D8000056AFF260136B54305624368C469214DB3
:104D90002C40A408A4000D682C4376001546B543AA
:104DA0002A468D682D022A431B4DA84200D107E0F8
:104DB0001A4DA84200D100BF194DA8420CD10BE0FA
:104DC0000126F6021546B5432A46CD682D022A4330
:104DD00076101546B5432A460F4DA84205D00F4D13
:104DE000A84202D00E4DA8420ED1012636031D4620
:104DF000B5432B4676001D46B5432B464D692D0124
:104E00002B438D692D012B434360C4614D68C563FD
:104E1000026270BD8FFFFEFF002C01400044014084
:104E20000048014070B5036A056A01263603B543A0
:104E300005624468C269144D2A40032636021546AD
:104E4000B5432A460D682D022A43012676031D46E6
:104E5000B5432B468D682D032B430C4DA84205D03E
:104E60000B4DA84202D00B4DA84207D10126B60334
:104E70002546B5432C464D69AD012C434460C261C3
:104E80004D680564036270BDFF8FFFFE002C01407A
:104E9000004401400048014070B5026A056A0126DD
:104EA0003604B54305624368446D114D2C400D68CE
:104EB0002C4376001546B5432A460D892D042A4316
:104EC0000C4DA84205D00C4DA84202D00B4DA84273
:104ED00007D1012636041D46B5432B464D692D02E8
:104EE0002B43436044654D688565026270BD0000D8
:104EF0008FFFFEFF002C01400044014000480140AC
:104F000070B5026A056A01263605B5430562436835
:104F1000446D114D2C400D682D022C437600154632
:104F2000B5432A460D892D052A430C4DA84205D0CC
:104F30000B4DA84202D00B4DA84207D10126B60462
:104F40001D46B5432B464D69AD022B434360446576
:104F50004D68C565026270BDFF8FFFFE002C0140E9
:104F6000004401400048014010B5364A022136484D
:104F7000FEF774FE354A02213348FEF7A5FE32489B
:104F800002210246324B5B5CD35802242343304C4F
:104F9000645C135100BF2B4A643A0321FEF75EFEA6
:104FA0002A4A121D03212848FEF78EFE642203219F
:104FB0002548FEF733FE00BF00BF00BF00BFEFF380
:104FC00010800446012000F0F8FA204824380068D8
:104FD000102108431D4924390860204600F0EDFAED
:104FE00000BF00BF00BF00BF00BF00BFEFF31080D5
:104FF0000446012000F0E1FA14482438806840217A
:105000000843124924398860204600F0D6FA00BFD0
:1050100000BF00BF00BF00BF00BFEFF31080044619
:10502000012000F0CAFA094824388068802108432A
:10503000064924398860204600F0BFFA00BF00BF4F
:1050400010BD0000E804002000000240244400409D
:105050008C62000870B504460D4600BF00BF1748BB
:10506000C0694021084080090028F7D000BFC8026D
:105070001349486000BF084603210246114B5B5CA0
:10508000D3585B085B000F4E765C935100BF2246FD
:1050900029460D48FBF790F8224603210848FEF701
:1050A000BDFD074803210246064B5B5CD358012631
:1050B0003343044E765C935100BF70BD0044004002
:1050C000000002408C6200088404002070B500BF1C
:1050D0002A48C06910210840000900284DD02848FE
:1050E00002210246274B5B5CD3585B085B00254CD2
:1050F000645C135100BF00BF00BF224B5B5C9B1878
:105100005B689BB22048036000880902081A1F49A7
:105110000880084600781E494871002405E01D48B3
:1051200001191D4800F0F3FA641C184800888442F5
:10513000F5DB01201649087111480221421503468A
:10514000104C645CE4186468240C240414430D4D72
:105150006D5CED186C6000BF00BF0246094B5B5CE4
:10516000D35801242343074C645C135100BF00BF94
:1051700010200249086200BF00BF70BD004400401B
:1051800000000240C462000804000020000000206B
:10519000E4060020E80400206C0E002010B5002278
:1051A000012189030148FDF744FA10BD00080050B1
:1051B00010B5012291030248FDF73BFA10BD000033
:1051C00000080050F8B506460F4600251820784321
:1051D00080B200903DE000240FE07078A040802174
:1051E0000840002801D0402000E0142069001D4A3A
:1051F0005052681C85B2601CC4B2082CEDDB002440
:105200000FE03078A04080210840002801D04020E5
:1052100000E014206900134A5052681C85B2601CDB
:10522000C4B2082CEDDB00240FE0B078A040802150
:105230000840002801D0402000E014206900094AFD
:105240005052681C85B2601CC4B2082CEDDB781E7D
:1052500087B2002FBFD12946FF31913188B200F0CB
:1052600059F8F8BD6C090020F8B50746002500265E
:1052700045E0002412E070003018401C385CA0406B
:1052800080210840002801D0402000E0142069005F
:105290001F4A5052681C85B2601CC4B2082CEADB5D
:1052A000002411E070003018385CA04080210840D4
:1052B000002801D0402000E014206900144A505218
:1052C000681C85B2601CC4B2082CEBDB002412E021
:1052D00070003018801C385CA040802108400028F5
:1052E00001D0402000E014206900094A5052681C97
:1052F00085B2601CC4B2082CEADB701C86B20A2E90
:10530000B7DB2946FF31913188B200F003F8F8BDD0
:105310006C09002010B504462346034A00210348C7
:10532000FEF72EFA10BD00006C090020DC030020FF
:10533000F7B59AB007465C2103A8FAF79CFF23490A
:1053400003C9029101900020009002241C98381893
:10535000401E1E2801DD1DB0F0BD002506E01B9893
:10536000405D79191A4A5054681CC5B21C98401EF9
:10537000A842F4DCC8222046611CCCB201A90A5420
:1053800002222046611CCCB201A90A540022204608
:10539000611CCCB201A90A54022607E001A8815D74
:1053A00000980818C0B20090701CC6B2A642F5DB87
:1053B0000098C043C2B22046611CCCB201A90A5475
:1053C0002046FFF747FE00BFC5E70000D463000892
:1053D0004C02002030B47446641E2578641CAB4235
:1053E00004D3635D5B00E31830BC18471D46F8E743
:1053F00010B5002819DB1A4A03231B02D2188308B0
:105400009B00D2588307DC0EFF23A3409A438B07EF
:105410001B0E8407E40EA3401A43114B03242402FD
:105420001B198408A4001A5118E00E4A03071B0F29
:10543000083B9B089B00D2588307DC0EFF23A34048
:105440009A438B071B0E8407E40EA3401A43054BB7
:105450000407240F083CA408A4001A5110BD000042
:1054600000E100E01CED00E010B5002819DB1A4A4D
:1054700003231B02D21883089B00D2588307DC0E3B
:10548000FF23A3409A438B071B0E8407E40EA3401F
:105490001A43114B032424021B198408A4001A5137
:1054A00018E00E4A03071B0F083B9B089B00D258CD
:1054B0008307DC0EFF23A3409A438B071B0E840750
:1054C000E40EA3401A43054B0407240F083CA4082C
:1054D000A4001A5110BD000000E100E01CED00E046
:1054E000F8B504464F1EC8000838211815461E4658
:1054F000086849683A4606239A4310D02A4633463C
:10550000FBF77AFB3A46D200083AA3181A687F1EC6
:105510005B68FBF71DF906223B469343EED1022F51
:1055200023D0042F11D0062F2FD12A463346FBF764
:1055300063FBE36AA26AFBF70BF92A463346FBF7E3
:105540005BFB636A226AFBF703F92A463346FBF7E3
:1055500053FBE369A269FBF7FBF82A463346FBF7E6
:105560004BFB63692269FBF7F3F82A463346FBF7E6
:1055700043FBE368A268FBF7EBF82A463346FBF7E8
:105580003BFB63682268FBF7E3F8F8BD002210B527
:10559000134610460149FBF70BF910BD0000F03F20
:1055A00010B50122FBF7CAFD10BD002210B513464D
:1055B00010461146FBF7FCF810BD80F310887047C9
:1055C00010B501202C4908702C4800880004000EFA
:1055D00048702A4800788870294800880004000E26
:1055E000C870274800780871402105200007FDF7A2
:1055F00017F82149234A12780A5420210520000770
:10560000FDF70EF81C491F4A52780A5480211E48A3
:10561000FDF706F818491B4A12790A5480211A48E6
:10562000FCF7FEFF1449085C012801D1487402E030
:105630000020114948741048007C012804D1FFF76C
:1056400092F8FFF7A1F803E0FFF784F8FFF793F86B
:105650000948407C012802D1FFF7D2F801E0FFF7AA
:10566000BFF80548C07C012802D1FFF7A1FD01E089
:10567000FFF794FD10BD00004C0200201800002030
:105680001C000020200000200004005010B501463E
:10569000002000224C688B68A34204DB0B898C88B5
:1056A0001B1B98B206E08B880124A402E31A0C8924
:1056B0001B1998B210BD024610684000401E4B1CDA
:1056C0001840704701600023436083600261C3603B
:1056D000704701460A68486850408A68904201D184
:1056E000012070470020FCE730B504460D462168D4
:1056F000491E606808402169085C2870204661687E
:10570000FFF7D9FF6060E068401EE06030BD30B553
:1057100004460D462A782168491EA0680840216980
:105720000A542046FFF7D5FF002804D020466168C0
:10573000FFF7C1FF60602046A168FFF7BCFFA060D3
:10574000E068401CE06030BD10B5C6B0FF210131FB
:1057500001A8FAF790FD6048FFF798FF042873DD71
:1057600043A95D48FFF7C0FF40A8007BFF2801D098
:1057700046B010BD43A95848FFF7B6FF40A8007BCC
:10578000FF2800D0F4E700BF544800F0EDFA0FE026
:10579000524800687D21C900401800F0DBFA00285B
:1057A00006D04F4A012149024B48FFF78BFFDFE744
:1057B0004948FFF76BFF0328EADB45A94648FFF796
:1057C00093FF40A8007DFF2800D1DDE744A94248AF
:1057D000FFF78AFF40A8007C801EC1B2449142A915
:1057E0003D48FFF781FF3D4800F0BEFA0FE03B481F
:1057F00000687D21C900401800F0ACFA002806D0EE
:10580000374A012149023448FFF75CFFB0E73248CC
:10581000FFF73CFF40A9097C491C8842E7DB40A810
:10582000007DC82811D040A8007DFE280DD000249E
:1058300005E043A92848FFF757FF601CC4B240A801
:10584000007C8442F5DB93E743E0002409E043A9B0
:105850002148FFF749FF40A8007B01A90855601CBB
:10586000C4B240A8007C8442F1DB41A91A48FFF78A
:105870003BFF01AB40A8027A017C007DFBF726FFCD
:1058800040A90979884224D100201649087140A80E
:10589000007A012804D002280DD0032811D102E09B
:1058A000FEF77CFF14E06946087940A90A7CFB39C1
:1058B000FFF73EFD0CE06A4651791079FFF732F8A8
:1058C00006E0074A012149020348FFF7FBFE00BF3B
:1058D00000BF00BF4CE700006C0E00206C020020EF
:1058E000800E0020E4060020F0B5C54A00248FB0E9
:1058F00091420ADA4B005B08934206D801254A0020
:105900006D05EA4205D1002803D0FFF749FE0FB02C
:10591000F0BD01252D05A94219DA034308D000295D
:1059200010DA0120FBF7D8FBFFF73FFE0FB0F0BD08
:105930000220FBF7D1FBFFF729FE0122D2075140DD
:105940000FB0F0BD3524E4433622FBF7F7FB0A1510
:10595000AC4B1219D4180A03120BAB49AB4B5618B7
:105960002E403146594011430192321512190B92C3
:105970000022FAF7FAFE019A0446921C1003A44E84
:10598000000B0D467E44032860D2204673683268BF
:1059900000F0C8FB1CD10B98002815D0FBF7C3FB07
:1059A00004460E469B4A9C4BFBF726F90D460746DC
:1059B0009A4A9B4B20463146FBF71EF93A462B4646
:1059C000FAF7C6FE0FB0F0BD716830680FB0F0BDD9
:1059D000944A954B20462946FBF70EF90022934B3B
:1059E000FAF7CEFE06460F4622462B4610461946CB
:1059F000FBF702F932463B46FBF7FEF806460B98EA
:105A00000F4600281DD0FBF78EFB824A824B059182
:105A10000490FBF7F1F832463B46FAF7B1FE224616
:105A20002B46FAF7A2FE04460D467C4A7C4B0599AC
:105A30000498FBF7E1F822462B46FAF796FE0FB0E2
:105A4000F0BD0B46324620462946C4E00123002221
:105A50009B072046FAF77CFE02460B462046294665
:105A6000FAF7A6FE06460F460B98FBF75CFB32469C
:105A70003B460591049010461946FBF7BDF8099185
:105A80000C906B490198099B421800920C9A194698
:105A90001046FBF7B1F8024607910A906549019854
:105AA0000B1A6548019303217844079BFFF718FD03
:105AB000079B0A9AFBF7A0F80E905F480D9104210E
:105AC0007844079B0A9AFFF70BFD099B0C9AFBF79A
:105AD00093F8019B009A1A4300920D9B0E9AFAF7D5
:105AE00037FE009A01910C90002A4DDD0022D2432E
:105AF00020462946FBF722FB22462B46FBF77CF883
:105B000000910A900B9800282BD0424A424B0599ED
:105B10000498FBF771F807910E90019B0C9A00997D
:105B20000A98FAF715FE32463B46FBF765F8079BE5
:105B30000E9AFAF70DFE009B0A9AFAF721FE22460A
:105B40002B46FAF712FE04460D46344A344B0599AB
:105B50000498FBF751F822462B46FAF706FE0FB0E1
:105B6000F0BD019B0C9A0A98FAF7F2FD32463B46CB
:105B7000FBF742F8009B0A9AFAF702FE22462B46F0
:105B8000FAF7FEFD0FB0F0BD0B98002827D0214A90
:105B9000214B05990498FBF72FF8079100902046B8
:105BA0002946019B0C9AFAF7E0FD32463B46FBF78B
:105BB00023F8079B009AFAF7D8FD22462B46FAF7FE
:105BC000D4FD04460D46154A154B05990498FBF77C
:105BD00013F822462B46FAF7C8FD0FB0F0BD0B466E
:105BE000204629460C9AFAF7C0FD32463B46FBF7A1
:105BF00003F822462B46FAF7C3FD0FB0F0BD0000B4
:105C00000000F07F01FCFFFF645F09000000F03F2F
:105C1000580B0000763C7935EF39EA3D0000E0FE94
:105C2000422EE63F555555555555D53F0000E03FAE
:105C300086EBF9FF51B80600FC090000FCF712FDE5
:105C4000FEF7C7FEFEF73AFBFEF70EFBFEF79AFAE9
:105C5000FEF74CFCFEF794FCFEF7B2FBFEF706FCE9
:105C6000FFF782F9C820FCF7D9FBFBF79FFC9620D1
:105C7000FCF7D4FBFBF792FC9620FCF7CFFBFBF77D
:105C800095FC9620FCF7CAFBFBF788FCFFF790FA1F
:105C9000FEF79CFDFEF7B4FDFEF765FDFEF774FD13
:105CA0000A210B48FFF78EFA0A4A012149020A48E5
:105CB000FFF708FD0BE000F059F9FDF7ADFE00F02D
:105CC00059F8FFF741FDFFF77BFCFEF7C1F9F2E75A
:105CD00001010020800E00206C0E0020F0B58DB078
:105CE00004460D4616461F4620462946159B149A23
:105CF000FAF73BFD01910090139B129AFAF758FDB9
:105D000003910290FFF7F0FD32463B460591049067
:105D1000FAF74EFD0A4A0B4B07910690FAF718FD69
:105D200002460B460991089000200749FAF740FD0A
:105D3000064A074B0B910A90FAF717FD0DB0F0BD1C
:105D400083DBB5DCE1796B3F0000F03F6666666699
:105D50006612714010B50446FCF772FCA04201D2F5
:105D6000002010BD0120FCE710B50446FCF768FCDC
:105D7000206010BDF0B58DB0FBF73EFD0B90FBF73A
:105D800087FD0A900B98FBF75BF8654A654B059118
:105D90000490FAF7F5FC0791069063480B9900F020
:105DA0001DFA0590FBF74CF80546079B069AFAF793
:105DB000FFFC09910890FAF711FB07460A98FBF7D8
:105DC0003FF8574A574B05910490FAF7D9FC0991CF
:105DD000089055480A9900F001FA0590FBF730F851
:105DE00007910690099B089AFAF7E2FC0546FAF734
:105DF000F5FA04463846FBF723F8099108904B4919
:105E000003C9039102904A4803C801910090494890
:105E10000CC809990898FFF761FF0546FAF7DEFA02
:105E2000454908602046FBF70BF805462A460B4615
:105E300042484349FAF7BCFC0591049021462046AC
:105E400000F0CCF90190FAF7FBFF05462A460B4615
:105E50003C483D49FAF7ACFC03910290059B049A3B
:105E6000FAF776FC394A3A4B07910690FAF77DFC2F
:105E700009910890FAF7B2FA3649086036492E4877
:105E8000006800F081F905D2FF20F5303349096838
:105E900088631BE032492848006800F075F905D294
:105EA0007D20C0002D49096888630FE02D492248F4
:105EB000006800F069F904D22B4828490968886312
:105EC00004E07D2040012549096888632249214872
:105ED000006800F059F904D20020204909680864DC
:105EE0001BE01F491B48006800F04EF905D27D20D9
:105EF000C0001A49096808640FE01A49154800688B
:105F000000F042F904D2184814490968086404E012
:105F10007D2040011149096808640DB0F0BD000002
:105F20006666666666660A40000020414000002002
:105F3000380000203000002028000020295C8FC29B
:105F4000F5447C403D0AD7A370B176C085EB51B8CB
:105F50001E852B402C00002000000C4290030020E6
:105F6000000070420000A042B80B000070B50A2586
:105F70000024FCF765FB5D4909684B22D2008918B3
:105F8000884277D95A4800685A4988420ADD5A48F7
:105F90000068884206DD0520584909688900584A8A
:105FA00050505AE0524800680521C90188420ADD74
:105FB00051480068884206DD04205049096889007C
:105FC0004F4A505049E04A4800684A4914398842CB
:105FD0000ADD49480068884206DD03204749096810
:105FE0008900474A505038E0414800684149283903
:105FF00088420ADD40480068884206DD02203F49A9
:10600000096889003E4A505027E0394800684B2112
:10601000C90088420ADD38480068884206DD012050
:10602000364909688900364A505016E03048006801
:10603000FF212D3188420ADD2F480068884206DDA5
:1060400000202E49096889002D4A505005E00A2099
:106050002A49096889002A4A505028480068401C8B
:1060600026490860084600680A2801D30020086015
:1060700001200CE038E08100214A51581268914219
:1060800002D020490C7804E01D490C78401C0A28F5
:10609000F1DB00BF1B4804702300FFF79BF90604E7
:1060A000080C1014181C1848FFF7DEF817E0174802
:1060B000FFF7DAF813E01648FFF7D6F80FE01548B7
:1060C000FFF7D2F80BE01448FFF7CEF807E01348CB
:1060D000FFF7CAF803E01248FFF7C6F800BF00BF99
:1060E000FCF7AEFA0149086070BD00001402002000
:1060F000180000208A0200001C000020440200203A
:106100001C02002018020020F4010020D60100200B
:10611000B80100209A0100207C0100205E010020CF
:106120004E09002070B501250C002D051C4310D42C
:10613000EC4206D4AC420AD4994200D070BD9042E1
:1061400070BDE94217D4EB4215D4994270BD894223
:1061500070BDEC4206D5AC42F9D58B4200D070BD83
:10616000824270BD6D004C00EC4204D25C00EC42F7
:1061700001D28B4270BD034C30B4FBF75DF830BCEC
:1061800070BD00BF1900120401230200DB050A43A1
:106190000DD4DA4203D49A4207D488427047D842D9
:1061A00014D4D94212D48842704780427047DA42F0
:1061B00003D59A42F9D5814270475B004200DA422A
:1061C00004D24A00DA4201D28142704710B5024A35
:1061D000FAF7E4FF10BD00BF0900160470B54200D5
:1061E00064414B005C41120E39D01B0E38D0FF2A9F
:1061F0003CD0FF2B3AD040024902400A490A06002F
:1062000045184E43000A090AD2184843ED017F3A67
:106210000104731A4019190C4318990F04D0012175
:106220005B0849075B1A521CD80904D3401CF503CC
:1062300001D19D0607D0FF2A08D2D50506D0E40774
:106240002043401970BD0125A843F4E7002A01DC72
:10625000E00770BD2402FF202043C00570BD1B0E67
:10626000FF2A03D0FF2B01D0E00770BDFF264500B9
:106270003606B54206D84D00B54203D8D218FF2ADB
:1062800000D0E7E7004870BD0000C07F081C304424
:10629000580000000100000002000000040000009F
:1062A00006000000080000000A0000000C000000CA
:1062B00010000000200000004000000080000000EE
:1062C00000010000081C30445800000001000000DC
:1062D00002000000040000000600000008000000AA
:1062E0000A0000000C000000100000002000000068
:1062F000400000008000000000010000081C304445
:10630000580000000100000002000000040000002E
:1063100006000000080000000A0000000C00000059
:10632000100000002000000040000000800000007D
:1063300000010000081C304458000000000000006C
:10634000000000000000000000000000000000004D
:10635000000000000000000000000000010000003C
:10636000020000000300000004000000060000001E
:106370000700000008000000090000000000000005
:10638000000000000000000000000000010000000C
:10639000020000000300000004000000081C30445C
:1063A000580000000100000002000000040000008E
:1063B00006000000080000000A0000000C000000B9
:1063C00010000000200000004000000080000000DD
:1063D00000010000FFFF000000000000FFFF0004BC
:1063E0000000000080807F7E7D7C7B7A79787776E4
:1063F00076757473727171706F6E6E6D6C6C6B6AA2
:106400006A6968686766666564646363626161603F
:10641000605F5F5E5E5D5D5C5C5B5B5A5A595958BC
:106420005857575656555555545453535252525126
:10643000515050504F4F4F4E4E4D4D4D4C4C4C4B7C
:106440004B4B4A4A4A4949494848484747474746C3
:1064500046464545454444444443434343424242FF
:10646000424141418182838485868788898B8C8DD6
:106470008E8F919293959697999A9C9D9FA0A2A397
:10648000A5A7A8AAACAEB0B2B3B5B7B9BCBEC0C2DE
:10649000C5C7C9CCCED1D4D7D9DCDFE2E6E9ECF070
:1064A000F3F7FAFE0000000004FA97999999D93F92
:1064B000AF788E1DC571CC3F9FC678D0099AC33F77
:1064C000935555555555E53F599322942449D23F4C
:1064D000DE03CB966446C73F44523EDF12F1C23F13
:1064E0000000000000000000086500080000002017
:1064F00070020000B21300088465000870020020DA
:106500007014000004010008C13204420103192480
:10651000F4081B246F9D6195F74AAE40F514A585DC
:10652000032124405732C31A9762B3BF8A02022163
:1065300009272A62060B24020802092A2A219AFF47
:10654000046A370409140909161849040919391984
:1065500004091C0361091C1E0916240112091C1ED2
:10656000A921091B2061320A3201320232033204AE
:1065700032053206320732085A092881F2151A010B
:046580000101100005
:04000005080000C12E
:00000001FF
